:107000000C9434380C9451380C9451380C945138F9
:107010000C9451380C9451380C9451380C945138CC
:107020000C9451380C9451380C9451380C945138BC
:107030000C9451380C942E3A0C9451380C945138CD
:107040000C94E6390C9451380C940A3A0C9451384B
:107050000C9451380C9451380C9451380C9451388C
:107060000C9451380C94513811241FBECFEFD8E046
:10707000DEBFCDBF11E0A0E0B1E0E6E0FEE702C078
:1070800005900D92A032B107D9F724E0A0E2B1E05B
:1070900001C01D92AF3DB207E1F70E94B53B0C94D1
:1070A000013F0C940038E0ECF0E0908195FFFDCFBB
:1070B0008093C6000895109248031092470384E01D
:1070C0008093490380E780934A0382E08093C00065
:1070D00098E99093C10096E89093C2001092C50081
:1070E0008093C40081E080936E0015BC0895E3E2B4
:1070F000F1E087E493E01192E817F907E1F71092C5
:107100004803109247031092220110922101E1ECF2
:10711000F0E0808180618083089580914A0386BD7C
:1071200080914703909148032091C600FC01ED5DDA
:10713000FE4F20830196843222E0920728F4909338
:1071400048038093470304C01092480310924703FA
:107150008091490385BD089580912001811105C06A
:107160005F9881E08093200108955F9A109220013A
:10717000089561157105D9F0E82FF92F6E0F7F1F63
:107180008FEF9FEF38E021918227232F80FF07C0E8
:107190009695879548E0842744E8942702C0969501
:1071A0008795215099F7E617F70769F702C08FEF27
:1071B0009FEF382F292F20953095822F932F0895F8
:1071C000CF92DF92EF92FF920F931F93CF93DF93B3
:1071D000C82ED92E8B010E94AC38B8018C2D9D2D64
:1071E0000E94B9387C0101151105D1F0CC2DDD2D9F
:1071F0000C0F1D1F6894DD24D5F88881982F9D57AA
:10720000923040F48DE70E94533888818D250E948A
:10721000533802C00E9453382196C017D10769F72E
:10722000CF2DDD27CE018D579109029750F48DE7C0
:107230000E94533880E290E08C279D270E945338AB
:1072400003C08C2F0E945338C70199278D5791098D
:10725000029750F48DE70E94533880E290E08E252B
:107260009F250E94533803C08E2D0E9453388EE70D
:107270000E9453380E94AC38DF91CF911F910F913B
:10728000FF90EF90DF90CF9008950F931F93CF93CF
:10729000DF93CDB7DEB760970FB6F894DEBF0FBEB1
:1072A000CDBF9F938F938E010F5F1F4F1F930F933F
:1072B0000E942C3C0E94AC3860E170E0C8010E9442
:1072C000E0380E94AC380F900F900F900F906096AE
:1072D0000FB6F894DEBF0FBECDBFDF91CF911F91E7
:1072E0000F9108950F931F93CF93DF93209147033E
:1072F000309148032430310508F448C02150310949
:10730000F901ED5DFE4F80818E3709F042C02115F5
:107310003105E9F0E3E2F1E080E090E0C0E0D0E0A8
:1073200050E2DC01AD5DBE4F4C914D3741F401960A
:10733000DC01AD5DBE4F4C914527408301C04083C9
:107340002196019631968217930758F302C0C0E048
:10735000D0E08E0102501109B80183E291E00E9451
:10736000B938492F5527F801ED5DFE4F208130E0F7
:107370004217530789F49927CE5DDE4F288130E00C
:107380008217930759F000E010E008C000E010E019
:1073900005C000E010E002C000E010E0802F912F57
:1073A000DF91CF911F910F910895E1ECF0E0808182
:1073B0008F7E808315BC0E94723990932201809346
:1073C0002101892B11F40E94773808951F920F92A2
:1073D0000FB60F9211242F933F934F935F936F93A8
:1073E0007F938F939F93AF93BF93EF93FF930E94ED
:1073F000D539FF91EF91BF91AF919F918F917F917F
:107400006F915F914F913F912F910F900FBE0F9011
:107410001F9018951F920F920FB60F9211242F9361
:107420003F934F935F936F937F938F939F93AF930C
:10743000BF93EF93FF930E948D38FF91EF91BF911F
:10744000AF919F918F917F916F915F914F913F91FC
:107450002F910F900FBE0F901F9018951F920F92B3
:107460000FB60F9211248F9387E38093D10481E0AC
:1074700080934B0387E58093850080E480938400AC
:107480008F910F900FBE0F901F901895CF93DF93A1
:1074900085B7816085BF82E085BF8FEF85B984B9EC
:1074A00088B987B98BB98AB914BC15BC16BC17BC8E
:1074B00018BC80E890E0FC011082C1E8D0E018829E
:1074C000A5E8B0E01C9244E850E0FA011082109266
:1074D0008700109286001092890010928800109206
:1074E0008B0010928A001092B6001092B000109299
:1074F000B1001092B2001092B3001092B40010923A
:107500006E0010926F0010927000109269001DBA08
:10751000109268001092C10020E820BF10927B00FA
:1075200010927F0010927A001CBC1092BC00FC01EB
:10753000108218821C92FA011082DF91CF91089577
:107540002CE433E08CEC93E0F9014E2F421B419385
:10755000E817F907D1F708958091CC03811105C090
:107560005F9881E08093CC0308955F9A1092CC03DA
:107570000895CF92DF92FF920F931F93CF93DF93E3
:10758000EC018A81843309F4B1C070F48133E9F0ED
:1075900020F4803309F0E0C013C0823309F445C001
:1075A000833309F0D9C043C0863309F4BAC008F464
:1075B000B6C0873309F4BFC0883309F0CDC0BFC05F
:1075C00080E091E00E944539C8C0998580E0288517
:1075D000822B9093CE038093CD03A0E0B0E08C018A
:1075E0009D01000F111F221F331FADE4B3E06DECAE
:1075F00073E04CE453E040955095CA01800F911F11
:10760000FC01EA0FFB1F45915491FD013197408326
:107610005C931296A617B70799F760E870E08CE4C0
:1076200093E00E94E0381A8298C01A8296C0598569
:1076300040E08885482B5093CE034093CD03EFED77
:10764000F3E0ACE4B3E08FE594E061916D93E8176B
:10765000F907D9F760E070E0440F551F661F771FE8
:10766000ACE4B3E01C91CA011196FC91E0E0DF01AB
:10767000A12B11E0FA010D0110935700E895112498
:107680004E5F5F4F6F4F7F4FAFE4B3E00DEC13E001
:10769000FF24F394EDEFFFEFEC54F3404E0F5F1F28
:1076A000FD0131976081FA01EA0FFB1F3C9120E058
:1076B0006901C62AB6010B01F0925700E895112422
:1076C0001296A017B10761F725E0FC01209357003F
:1076D000E89507B600FCFDCF81E180935700E8955F
:1076E00085E091E00E9445391A8237C0E0E0F0E081
:1076F00083E080935700E89507B600FCFDCFE05883
:10770000FF4FE11590E7F907A1F781E1809357005A
:10771000E8958FE091E00E9445391A821EC01A82D6
:107720001CC00E94A03A60E071E08CE493E00E94EB
:10773000E0381A8212C00E94AC3A1A820EC085B795
:10774000816085BF15BE88E191E00E944539E0E087
:10775000F0E009951A8201C01A82DF91CF911F9142
:107760000F91FF90DF90CF9008950E94463A0E94BB
:107770005B3884E08093810081E080936F0078948F
:107780001092CF040FED14E00F2EF1E8AF2EB12CC4
:10779000F02D0F2EFFECEF2EF3E0FF2EF02D0F2E2D
:1077A000F3E2CF2EF1E0DF2EF02D0F2EFFED8F2E26
:1077B000F3E09F2EF02D6894772472F880912101D8
:1077C00090912201892B21F1F50110824091210134
:1077D000509122016C2D7D2D8E2D9F2D0E94233CDA
:1077E0000E947738F701CFECD4E0DE0181918D93D0
:1077F000E815F905D9F78FEC94E00E94B93A19928F
:10780000C017D107E1F7F501708210924B0310C049
:1078100080914B03882361F010924B038FEC94E02E
:107820000E94B93AEFECF4E01192E017F107E1F7AA
:1078300083B7817F83BF83B7816083BF889583B718
:107840008E7F83BFBBCFFB01DC0102C001900D9294
:1078500041505040D8F70895AEE0B0E0E2E3FCE3D9
:107860000C94D83E0D891E8986E08C831A83098387
:107870008FEF9FE79E838D83CE014996AC016F8980
:10788000788DCE0101960E944E3CEF81F885E00F85
:10789000F11F10822E96E4E00C94F43EACE0B0E0D0
:1078A000E4E5FCE30C94CA3E7C016B018A01FC0117
:1078B00017821682838181FFC6C188248394912C0C
:1078C0008C0E9D1EF7019381F60193FD859193FF28
:1078D00081916F01882309F4B2C1853239F493FD97
:1078E000859193FF81916F01853229F4B70190E072
:1078F0000E94403EE7CF512C312C20E02032A8F4EA
:107900008B3261F028F4803251F0833271F40BC075
:107910008D3239F0803349F4216028C02260246020
:1079200025C0286023C0206121C027FD27C0382F33
:1079300030533A3078F426FF06C0FAE05F9E300DEF
:107940001124532E13C08AE0389E300D1124332E9B
:1079500020620CC08E3221F426FD71C1206406C065
:107960008C3611F4206802C0883641F4F60193FD8C
:10797000859193FF81916F018111C0CF982F95540C
:10798000933018F09052933028F40C5F1F4FFFE3B0
:10799000F9830DC0833631F0833771F0833509F0F8
:1079A0005EC023C0F801808189830E5F1F4F44248D
:1079B0004394512C540115C03801F2E06F0E711C34
:1079C000F801A080B18026FF03C0652D70E002C0E1
:1079D0006FEF7FEFC5012C870E94353E2C0183019C
:1079E0002C856FE7262E222218C03801F2E06F0E98
:1079F000711CF801A080B18026FF03C0652D70E0E6
:107A000002C06FEF7FEFC5012C870E942A3E2C0138
:107A10002C8550E8252E222A830123FC1CC006C099
:107A2000B70180E290E00E94403E3A94832D90E0BE
:107A300048165906A8F30FC0F50127FC859127FECB
:107A400081915F01B70190E00E94403E31103A946D
:107A5000F1E04F1A51084114510471F7EDC084361A
:107A600011F0893641F5F80127FF07C06081718167
:107A7000828193810C5F1F4F08C0608171818827CC
:107A800077FD8095982F0E5F1F4F4FE6B42EB222E0
:107A900097FF09C090958095709561957F4F8F4FA6
:107AA0009F4FF0E8BF2A2AE030E0A4010E946C3E1C
:107AB000A82EA81843C0853731F43FEEB32EB2226A
:107AC0002AE030E024C099EFB92EB2228F36B9F007
:107AD00020F4883509F0B3C00DC0803721F0883715
:107AE00009F0ADC002C020E1B22AB4FE0BC084E0B0
:107AF000B82A08C024FF09C0E6E0BE2A06C028E074
:107B000030E005C020E130E002C020E132E0F801C1
:107B1000B7FE07C060817181828193810C5F1F4F26
:107B200006C06081718180E090E00E5F1F4FA4016C
:107B30000E946C3EA82EA818FFE7BF22B6FE0BC01D
:107B40002B2D2E7FA51450F4B4FE0AC0B2FC08C041
:107B50002B2D2E7E05C07A2C2B2D03C07A2C01C034
:107B6000752C24FF0DC0FE01EA0DF11D80818033CC
:107B700011F4297E09C022FF06C07394739404C0D7
:107B8000822F867809F0739423FD14C020FF0FC064
:107B90005A2C731460F4530C5718732C08C0B70197
:107BA00080E290E02C870E94403E73942C857314F1
:107BB000B0F304C0731410F4371801C0312C24FF43
:107BC00012C0B70180E390E02C870E94403E2C85D4
:107BD00022FF1EC021FF03C088E590E002C088E7B5
:107BE00090E0B7010CC0822F867891F021FD02C091
:107BF00080E201C08BE227FD8DE2B70190E00E9498
:107C0000403E06C0B70180E390E00E94403E5A9497
:107C1000A514C0F3AA94F401EA0DF11DB701808107
:107C200090E00E94403EA110F5CF06C0B70180E26F
:107C300090E00E94403E3A943110F8CF43CEF701D5
:107C40002681378102C02FEF3FEFC9012C96E2E178
:107C50000C94E63EFC010590615070400110D8F78D
:107C6000809590958E0F9F1F0895FC016150704084
:107C700001900110D8F7809590958E0F9F1F089561
:107C80000F931F93CF93DF938C01EB018B8181FDC9
:107C900003C00FEF1FEF1AC082FF0DC02E813F817E
:107CA0008C819D812817390764F4E881F98101935B
:107CB000F983E88306C0E885F985802F0995892B2B
:107CC00041F78E819F8101969F838E83C801DF914A
:107CD000CF911F910F910895FA01AA27283051F1F1
:107CE000203181F1E8946F936E7F6E5F7F4F8F4FED
:107CF0009F4FAF4FB1E03ED0B4E03CD0670F781F4C
:107D0000891F9A1FA11D680F791F8A1F911DA11D30
:107D10006A0F711D811D911DA11D20D009F4689469
:107D20003F912AE0269F11243019305D3193DEF611
:107D3000CF010895462F4770405D4193B3E00FD0C7
:107D4000C9F7F6CF462F4F70405D4A3318F0495DB2
:107D500031FD4052419302D0A9F7EACFB4E0A69595
:107D60009795879577956795BA95C9F700976105B7
:107D7000710508959B01AC010A2E0694579547950D
:107D800037952795BA95C9F7620F731F841F951F02
:107D9000A01D08952F923F924F925F926F927F9213
:107DA0008F929F92AF92BF92CF92DF92EF92FF920B
:107DB0000F931F93CF93DF93CDB7DEB7CA1BDB0BB7
:107DC0000FB6F894DEBF0FBECDBF09942A8839885C
:107DD00048885F846E847D848C849B84AA84B98463
:107DE000C884DF80EE80FD800C811B81AA81B9816F
:107DF000CE0FD11D0FB6F894DEBF0FBECDBFED0183
:067E00000895F894FFCF85
:107E0600626F6F74007061676520646F6E650065F0
:107E160072617365206F6B006A756D70206F6B0001
:040000030000700089
:00000001FF
